{
    "contractName": "HelloWorld",
    "abi": [
        {
            "inputs": [],
            "name": "getHelloMessage",
            "outputs": [
                {
                    "internalType": "string",
                    "name": "",
                    "type": "string"
                }
            ],
            "stateMutability": "view",
            "type": "function"
        }
    ],
    "bytecode": "608080604052346100a857600080546001908181811c9116801561009e575b602082101461008a57601f8111610061575b50507f48656c6c6f20576f726c6400000000000000000000000000000000000000001690556101ec90816100ae8239f35b828052601f60208420910160051c8101905b8181106100805750610030565b8381558201610073565b634e487b7160e01b83526022600452602483fd5b90607f169061001e565b600080fdfe608080604052600436101561001357600080fd5b6000803560e01c633493b37c1461002a5750600080fd5b346101245780600319360112610124578054600181811c918181169184831561011a575b60209283861085146101065785885260208801949081156100ea5750600114610092575b61008e876100828189038261017e565b60405191829182610127565b0390f35b6000805294509192917f290decd9548b62a8d60345a988386fc84ba6bc95484008f6362f93160ef3e5635b8386106100d957505050910190506100828261008e3880610072565b8054858701529482019481016100bd565b60ff1916855250505001915061008290508261008e3880610072565b634e487b7160e01b82526022600452602482fd5b93607f169361004e565b80fd5b919091602080825283519081818401526000945b82861061016857505080604093941161015b575b601f01601f1916010190565b600083828401015261014f565b858101820151848701604001529481019461013b565b90601f8019910116810190811067ffffffffffffffff8211176101a057604052565b634e487b7160e01b600052604160045260246000fdfea2646970667358221220d0789f9768d5d195f453a07a59c88159667f1f5cb6a43e768df472d5752f838b64736f6c634300080d0033",
    "sourcePath": "f:/programming/solidity-study/src/HelloWorld.sol",
    "compiler": {
        "name": "solc",
        "version": "0.8.13+commit.abaa5c0e"
    },
    "functionHashes": {
        "getHelloMessage()": "3493b37c"
    },
    "gasEstimates": {
        "creation": {
            "codeDepositCost": "98400",
            "executionCost": "infinite",
            "totalCost": "infinite"
        },
        "external": {
            "getHelloMessage()": "infinite"
        }
    }
}